:020000040000FA
:060000000A128A11122809
:10000800FE00030E83120313A8000408A9000A08BF
:10001800AA007F08AB000A128A15182E0A128A1144
:1000280015280A128A11F0270A128A11D0000A121A
:100038008A11F1270A128A11D1000A128A11F227AD
:100048000A128A11D200C301C401C501C601C70141
:10005800C801C901CA01CB01CC01CD01CE01CF0134
:1000680083010A128A15D12EFC01FD01FA01FB0158
:10007800F401F5013F284028831203130618452888
:100088004628E829F601F7017708803AFF00803012
:100098007F02031D512808307602031C5428552876
:1000A80057287E287E285828592801300310FC0D2F
:1000B800FD0DFF3E031D5A2883120313060801395C
:1000C800F000F1017008FC007108FD000130F6072E
:1000D8000318F70A0030F7077708803AFF008030E6
:1000E8007F02031D792808307602031C7C287D28AE
:1000F80057287E280330F000F00B802883286E30C4
:10010800F000F00B85280000F601F7017708803A27
:10011800FF0080307F02031D932808307602031CFD
:10012800962897289928C028C0289A289B28013003
:100138000310FA0DFB0DFF3E031D9C2883120313C9
:1001480006080139F000F1017008FA007108FB0097
:100158000130F6070318F70A0030F7077708803AE6
:10016800FF0080307F02031DBB2808307602031C85
:10017800BE28BF289928C0287D08F1007C08F00017
:100188000730FF000310F00DF10DFF0BC6287008B3
:100198007104031DD028D128AC297B307C067D044E
:1001A8000319D728D828DF287B307A067B04031D5B
:1001B800DE28DF28EB288312031385140130F200B0
:1001C8000030F3007B30F4000030F50093297730DD
:1001D8007C067D040319F128F228F92877307A067D
:1001E8007B04031DF828F9280229831203138710BA
:1001F80007147730F4000030F50093296F307C063F
:100208007D0403190829092910296F307A067B040F
:10021800031D0F291029932983120313071087142C
:100228006F30F4000030F50093299329932993291E
:10023800AC30F0001F29F00B1E2922292329033096
:10024800F000F00B25292829F801F901003079027E
:10025800083003197802031C322933293529582913
:1002680058293629372901300310FC0DFD0DFF3EB2
:10027800031D38298312031306080139F000F10120
:100288007008FC007108FD000130F8070318F90A2E
:100298000030F90700307902083003197802031C8E
:1002A80056295729352958296E30F000F00B5A295C
:1002B80000000330F000F00B5F296229F801F90112
:1002C80000307902083003197802031C6C296D2963
:1002D8006F29932993297029712901300310FA0D88
:1002E800FB0DFF3E031D7229831203130608013913
:1002F800F000F1017008FA007108FB000130F807FE
:100308000318F90A0030F907003079020830031998
:100318007802031C902991296F299329932975083C
:100328007D06031D992974087C0603199C299D29BB
:100338001C2975087B06031DA32974087A0603196E
:10034800A629A7291C298312031307108710E82957
:10035800B7307C067D040319B229B329BB29B7300D
:100368007A067B04031DB929BA29BE29BB29F201E3
:10037800F301BE29AF307C067D040319C429C529C1
:10038800CD29AF307A067B04031DCB29CC29D2298D
:10039800CD290230F2000030F300D229BB307C06B0
:1003A8007D040319D829D929E129BB307A067B04B1
:1003B800031DDF29E029E829E1290330F200003094
:1003C800F300E829E829E8290800FF30831203131D
:1003D800C9000330CA00D001D10105300A128A15BC
:1003E800F7250A128A1183120313AF002F08B100F0
:1003F8002A303106031D012A022A4F2A02300A1226
:100408008A15F7250A128A11033983120313AF00DC
:10041800B0012F08C9003008CA0008300310C90D00
:10042800CA0DFF3E031D122A03300A128A15F7254A
:100438000A128A1183120313AF00B0012F08C907EB
:100448000318CA0A3008CA0700300A128A15F725A5
:100458000A128A11033983120313AF00B0012F085F
:10046800D0003008D10008300310D00DD10DFF3E68
:10047800031D382A01300A128A15F7250A128A1133
:1004880083120313AF00B0012F08D0070318D10A55
:100498003008D107272B0E308500B401B501350887
:1004A800803AFF0081307F02031D5C2A003034024D
:1004B800031C5F2A602A622AA12AA12A8312031335
:1004C8009F14143083120313B0007930AF00AF0BC0
:1004D8006B2AB00B6B2A702A831203139F18752A94
:1004E800762A702A772A1E08B300831603131E087B
:1004F80083120313B2004A083302031D852A4908F0
:1005080032020318882A892A8D2A3308CA00320839
:10051800C9000130B4070318B50A0030B50735081B
:10052800803AFF0081307F02031D9C2A003034028C
:10053800031C9F2AA02A622AA12A831203134908AE
:10054800AF002F08AC0003300A128A1596260A124B
:100558008A11831203134A08A83EAF002F08AC0083
:1005680002300A128A1596260A128A110730831257
:1005780003138500B401B5013508803AFF008130C6
:100588007F02031DC92A00303402031CCC2ACD2A5D
:10059800CF2A0E2B0E2B831203139F1414308312B1
:1005A8000313B0007930AF00AF0BD82AB00BD82AAC
:1005B800DD2A831203139F18E22AE32ADD2AE42A9C
:1005C8001E08B300831603131E0883120313B20018
:1005D80033085102031DF22A320850020318F52A83
:1005E800F62AFA2A3308D1003208D0000130B407BD
:1005F8000318B50A0030B5073508803AFF00813086
:100608007F02031D092B00303402031C0C2B0D2B19
:10061800CF2A0E2B831203135008AF002F08AC000B
:1006280001300A128A1596260A128A1183120313B8
:100638005108A83EAF002F08AC0000300A128A15F6
:1006480096260A128A112A3083120313AF002F0844
:10065800AC0005300A128A1596260A128A1108007B
:10066800073083120313A5007C30A400A40B3A2B97
:10067800A50B3A2B000083120313861A442B462B32
:100688000130472B0030A400061A4B2B4D2B0130AC
:100698004E2B003024060319522B542B0130552BB6
:1006A8000030A5002508FC00060EA400240C013922
:1006B800A500A60146082606031D642B4508250645
:1006C8000319672B692B01306A2B00307C0603194C
:1006D8006E2B702B0130712B0030A7002708FC000F
:1006E800060EA400240C0139A500A6012508C500A2
:1006F8002608C6004D0801397C06031D842B852B6E
:100708008A2B0230A4002408CD078F2B7C08A40074
:100718002408CD008F2B4D08A40001300310A40C31
:10072800FF3E031D922B240803199B2B9C2BC82BDF
:100738007C08031DA02BA12BA82B0130CB07031885
:10074800CC0A0030CC07C32B4B084C04031DAD2B3F
:10075800AE2BBC2B6A3084000A128A114B260A126F
:100768008A11FF3ECB00FF3003180030CC00C32BAA
:10077800FF30CB070318CC0AFF30CC07C32B7C080B
:10078800A4002408CD00C82B0530F7000030F8007D
:100798004C08F3004B08F2006A3084000A128A11F0
:1007A8004B260A128A11A400A5012408F000250886
:1007B800F1000A128A118D270A128A117108FA00AB
:1007C8007008F9000A128A11D8250A128A117808C5
:1007D80083120313CF007708CE000130A4004E0A1D
:1007E800F72B0310A40DFF3E031DF52B2408FF3A39
:1007F800013E0F3E8500D2144B08A4002408F000E7
:1008080004300A128A1565260A128A11080083160E
:1008180003130F088F3960388F008F150F118F1051
:100828000F10051085100511851106168616091575
:100838000811081208138813071187110712871265
:1008480007138713831203131F083F3940389F008B
:100858001F08C3391C389F001F14831603139F17E2
:100868009F1283160317081088100811881188171B
:100878008911891283120313061686168B150B101D
:10088800831603131616961683120313061483167B
:100898000317091283160313071087100810011392
:1008A8000B168B10831203138710071008100E30D5
:1008B80085000A128A15B4250A128A117D300A1297
:1008C8008A15C5250A128A1181300A128A15C5258A
:1008D8000A128A1104300A128A15F7250A128A1197
:1008E80083120313BC00BD013C08CB003D08CC00BB
:1008F8000530B3000030B4004C08AF004B08AE0020
:100908006A3084000A128A114B260A128A11BC0026
:10091800BD013C08AC003D08AD000A128A11282729
:100928000A128A11831203132D08B6002C08B50089
:100938000A128A1165250A128A11831203133408D0
:10094800CF003308CE000130BC004E0AAD2C031096
:10095800BC0DFF3E031DAB2C3C08FF3A013E0F3E89
:1009680085000A128A11E9210A128A1183160313D3
:100978008C148B1708008312031307120A30B30074
:100988000030B4000A128A150D270A128A110B309A
:1009980083120313B3000030B4000A128A150D271E
:1009A8000A128A110C3083120313B3000030B4000A
:1009B8000A128A150D270A128A111230831203139C
:1009C800B3000030B4000A128A150D270A128A11E2
:1009D800143083120313B3000030B4000A128A15CE
:1009E8000D270A128A11143083120313B300003042
:1009F800B4000A128A150D270A128A110A308312C6
:100A08000313B3000030B4000A30AC000030AD006E
:100A18003D08AF003C08AE000A128A1128270A12C6
:100A28008A11831203132C09BE002D09BF00BE0AC8
:100A38000319BF0A3C083E07B5003D0803183D0AE4
:100A48003F07B6000A128A1165250A128A11831215
:100A580003133308C0004008C1004108031D352DA9
:100A6800362D3B2D1430BE003E08C1003B2D4108F9
:100A7800BE00BF013E08B3003F08B4000A128A1541
:100A88000D270A128A110A3083120313AC000030B2
:100A9800AD003D08AF003C08AE000A128A112827B5
:100AA8000A128A11831203132D08B4002C08B3000C
:100AB8000A128A150D270A128A11831203130716C0
:100AC800080083120313B901B41F6B2D6C2D742D0C
:100AD800B309B409B30A0319B40AB901B90A742DE0
:100AE800B61F772D782D822DB509B609B50A0319D9
:100AF800B60A0130B7003708B906822DBA01BB0122
:100B0800330834040319892D8A2DC72DB801B80A72
:100B1800992D01300310B30DB40DFF3E031D8E2D2A
:100B28000130B7003708B807992DB41F9C2D9D2DAB
:100B38008D2D9F2D9F2D01300310BA0DBB0DFF3E4B
:100B4800031DA02D34083602031DAC2D33083502D1
:100B5800031CAF2DB02DB82D3308B5023408031C83
:100B6800B603B6023A14B82D01300310B40CB30C16
:100B7800FF3E031DB92D0130B802031DC42DC52D3C
:100B88009F2DC72DC72D39080319CB2DCC2DD22D5C
:100B9800BA09BB09BA0A0319BB0AD22D3B08B4002B
:100BA8003A08B300D72D080083120313A101F81FD8
:100BB800DE2DDF2DE72DF709F809F70A0319F80AE2
:100BC800A101A10AE72DFA1FEA2DEB2DF52DF90950
:100BD800FA09F90A0319FA0A0130FB007B08A10691
:100BE800F52DA201A301770878040319FC2DFD2D2A
:100BF8003A2EA001A00A0C2E01300310F70DF80DB3
:100C0800FF3E031D012E0130FB007B08A0070C2EC0
:100C1800F81F0F2E102E002E122E122E0130031048
:100C2800A20DA30DFF3E031D132E78087A02031DA3
:100C38001F2E77087902031C222E232E2B2E7708CD
:100C4800F9027808031CFA03FA0222142B2E013049
:100C58000310F80CF70CFF3E031D2C2E0130A002E8
:100C6800031D372E382E122E3A2E3A2E210803193C
:100C78003E2E3F2E452EA209A309A20A0319A30A54
:100C8800452E2308F8002208F7004A2E08000630EF
:100C98008A000408840A820700343E3451344934F7
:100CA80045343E34003442347F34403400346234B6
:100CB800513449344934463422344134493449346E
:100CC80036341834143412347F341034273445340D
:100CD8004534453439343C344A3449344934303461
:100CE8000134713409340534033436344934493411
:100CF8004934363406344934493429341E340734E7
:100D080018346034183407343E34413441344134A3
:100D18003E347F344034403440344034003441342D
:100D28007F34413400347F340434083410347F3441
:100D38007F3409340934093406343F3440344034AC
:100D480040343F34013401347F34013401340034F9
:100D5800303430340034003400343634363400341F
:100D68000034003400340034003400341434BC2E11
:100D7800BD2E0000831203139F14C22E9F18C52E88
:100D8800C62EC22EC72E1E08BD00831603131E08CA
:100D980083120313BC0043080F3EBA00440803182B
:100DA800013E003EBB003B083D02031DDD2E3A0814
:100DB8003C020318E02EE12EF42E4308F13EBA005F
:100DC80044080318013EFF3EBB003D083B02031DDB
:100DD800EF2E3C083A02031CF22EF32E272FF42E96
:100DE8004909BA004A09BB00BA0A0319BB0A5008E4
:100DF8003A07B20051080318510A3B07B3003D08EF
:100E0800AD003C08AC001E30AE000030AF000A1246
:100E18008A153B260A128A11831203132D08B5007E
:100E28002C08B4000A128A1556270A128A1183124E
:100E380003133308C8003208C70052143D08C40021
:100E48003C08C300272F080083120313B201AF1F09
:100E58002E2F2F2F372FAE09AF09AE0A0319AF0A6D
:100E6800B201B20A372FAD1F3A2F3B2F412FAC09E1
:100E7800AD09AC0A0319AD0A412F2C082D0403193A
:100E8800462F472F7C2FB101B10A562F013003108E
:100E9800AC0DAD0DFF3E031D4B2F0130B0003008E7
:100EA800B107562FAD1F592F5A2F4A2F5C2F5C2F91
:100EB8002D082F02031D622F2C082E02031C652FFC
:100EC800662F6D2F2C08AE022D08031CAF03AF024E
:100ED8006D2F01300310AD0CAC0CFF3E031D6E2FBF
:100EE8000130B102031D792F7A2F5C2F7C2F7C2FC4
:100EF80032080319802F812F872FAE09AF09AE0A58
:100F08000319AF0A872F2F08AD002E08AC008C2FCD
:100F18000800F601F31F912F922F9A2FF209F30977
:100F2800F20A0319F30AF601F60A9A2FF11F9D2F08
:100F38009E2FA42FF009F109F00A0319F10AA42F32
:100F4800700871040319A92FAA2FDF2FF501F50ADC
:100F5800B92F01300310F00DF10DFF3E031DAE2F28
:100F68000130F4007408F507B92FF11FBC2FBD2F0D
:100F7800AD2FBF2FBF2F71087302031DC52F700837
:100F88007202031CC82FC92FD02F7008F2027108F3
:100F9800031CF303F302D02F01300310F10CF00C03
:100FA800FF3E031DD12F0130F502031DDC2FDD2F7D
:100FB800BF2FDF2FDF2F76080319E32FE42FEA2F47
:100FC800F209F309F20A0319F30AEA2F7308F10088
:0E0FD8007208F000EF2F0800FF3403340334DA
:101B6800F030831203139405141283160313141709
:101B780094178312031394160815071507130813EF
:101B8800080083120313AC0088178717081207127E
:101B98002C089300CF2D83160313141CD42DD52D98
:101BA800CF2D83120313081607168713881308000E
:101BB80083120313AF00AE01E12D2F1CE42DE52D98
:101BC800EA2D2C08AD002D08AE07EA2D0310AC0D48
:101BD8000310AF0C2F08031DF22DF32DE12DF42D6A
:101BE8002E08F62D080083120313AD006400831637
:101BF80003178C18002E032E83120313FA2D042EBC
:101C0800831203132D08831203178D003F308312AC
:101C18000313AC002C08831603178C050C148312CD
:101C280003170C08172E08000B1C1B2E1C2E232E26
:101C38000A128A1134230A128A150B10232E8B1CC0
:101C4800262E272E2E2E0A128A1138200A128A15BD
:101C58008B102E2E831203132B08FF002A088A00EC
:101C680029088400280E8300FE0E7E0E09008312C8
:101C78000313B001B101402E2C1C432E442E4A2ED2
:101C88002E08B0070318B10A2F08B1070130031056
:101C9800AE0DAF0DFF3E031D4B2E01300310AD0CF2
:101CA800AC0CFF3E031D522E2C082D04031D5D2E87
:101CB8005E2E402E5F2E3108AD003008AC00642E39
:101CC8000800F200672E831603178C186C2E6D2EF1
:101CD800672E6E2E7208831203178D0070088C0011
:101CE8003F30F1007108831603178C058312031324
:101CF80003108B1F802E812E822E03148B138316C4
:101D080003170C1555308D00AA308D008C140C115A
:101D180083120313031C912E922E952E8B17952E4A
:101D2800952E080083120313AE009A2E831603170C
:101D38008C189F2EA02E9A2EA12E831203132E08E4
:101D4800831203178D00831203132C0883120317C1
:101D58008C003F3083120313AD002D088316031740
:101D68008C058312031303108B1FBB2EBC2EBD2EB4
:101D780003148B13831603170C1555308D00AA30E6
:101D88008D008C140C1183120313031CCC2ECD2E42
:101D9800D02E8B17D02ED02E08000A128A110B24B1
:101DA8000A128A15D72E0A128A11BB260A128A1518
:101DB80083120313521CE12EE22EF02E0230C200D1
:101DC8004208D2054808BD004708BC000A128A111B
:101DD800BF240A128A15F02E83120313D21CF52E83
:101DE800F62ED72E0130C2004208D2054E08013E19
:101DF800B8004F080318013E003EB9000A128A15C0
:101E0800A3270A128A15D72ED72ED72E0A128A117F
:101E1800122883120313B601B7013708803AFF006E
:101E280080307F02031D1A2F05303602031C1D2F38
:101E38001E2F202F552F552F053083120313B50061
:101E48003508AC0033080A128A15DC250A128A15EF
:101E5800013E83120313360784000A128A114B26A7
:101E68000A128A159300382F83160313141C3D2F6A
:101E78003E2F382F3F2F013083120313B607031864
:101E8800B70A0030B7073708803AFF0080307F0272
:101E9800031D502F05303602031C532F542F202FBB
:101EA800552F080083120313B701B8013208330411
:101EB80003195F2F602F9D2FB901B90A6F2F0130C9
:101EC8000310B20DB30DFF3E031D642F0130B600A1
:101ED8003608B9076F2FB31F722F732F632F752F13
:101EE800752F01300310B70DB80DFF3E031D762F77
:101EF80033083502031D822F32083402031C852F54
:101F0800862F8E2F3208B4023308031CB503B5029E
:101F180037148E2F01300310B30CB20CFF3E031D93
:101F28008F2F0130B902031D9A2F9B2F752F9D2FDC
:101F38009D2F3808B3003708B200A22F080083127B
:101F4800031308120D30B3000030B4000A128A15CA
:101F58000D270A128A150E3083120313B3000030BE
:101F6800B4000A128A150D270A128A150F30831237
:101F78000313B3000030B4000A128A150D270A12A1
:101F88008A15103083120313B3000030B4000A120C
:101F98008A150D270A128A15113083120313B3000C
:101FA8000030B4000A128A150D270A128A15133058
:101FB80083120313B3000030B4000A128A150D27E8
:101FC8000A128A15143083120313B3000030B400C8
:101FD8000A128A150D270A128A1583120313390863
:101FE800B4003808B3000A128A150D270A128A1598
:081FF800831203130816080010
:04400E00D5E3FFFFF8
:00000001FF
