:020000040000FA
:060000000A128A1110280B
:10000800FE00030E83120313A8000A08A9007F0844
:10001800AA000A128A116B2B0A128A1113280A12D3
:100028008A11B9230A128A11C1000A128A11BA2345
:100038000A128A11C200B601B701B801B901BA01A2
:10004800BB01BC01BD01BE01BF01C00183010A1291
:100058008A11552BFC0183120313861A342836287B
:10006800013037280030A400061A3B283D2801300B
:100078003E2800302406031D422843284528FD0158
:100088004828FD01FD0A4828060EA400240C013961
:10009800A500A6013B082606031D54283A08250694
:1000A80003195728592801305A2800307D060319AA
:1000B8005E286028013061280030A7002708FD006D
:1000C800060EA400240C0139A500A6012508BA00D3
:1000D8002608BB007C08A40007300310A40CFF3ED0
:1000E800031D712824087D06031D7B287C28812890
:1000F8000130A4002408FC078F287D08A4000630DE
:100108000310A40DFF3E031D84280310240DA50031
:100118002508FC008F287C08A400A5010310A40D65
:10012800A50D2508803AFF0080307F02031D9E2818
:1001380002302402031CA128A228C7287D03031D1E
:10014800A628A728B028013083120313BC07031878
:10015800BD0A0030BD07C528831203133C083D04BF
:10016800031DB728B828BD280B30BC000030BD00DF
:10017800C528FF30BC070318BD0AFF30BD07C528D6
:10018800C528FC01C7280330F7000030F8008312A7
:1001980003133D08F3003C08F2000C30F000003077
:1001A800F1000A128A11DB210A128A117108FA0079
:1001B8007008F9000A128A11F9200A128A117808BF
:1001C80083120313C0007708BF000130A4003F0A60
:1001D800EF280310A40DFF3E031DED282408FF3A65
:1001E800013E0F3E8500BE14080083120313A101CF
:1001F800F81FFF2800290829F709F809F70A031941
:10020800F80AA101A10A0829FA1F0B290C291629A5
:10021800F909FA09F90A0319FA0A0130FB007B08FF
:10022800A1061629A201A3017708780403191D293C
:100238001E295B29A001A00A2D2901300310F70D02
:10024800F80DFF3E031D22290130FB007B08A007A3
:100258002D29F81F30293129212933293329013043
:100268000310A20DA30DFF3E031D342978087A025E
:10027800031D402977087902031C432944294C2986
:100288007708F9027808031CFA03FA0222144C29A9
:1002980001300310F80CF70CFF3E031D4D29013007
:1002A800A002031D5829592933295B295B292108F4
:1002B80003195F2960296629A209A309A20A03195B
:1002C800A30A66292308F8002208F7006B2908000A
:1002D80001308A000408840A820700343E3451340D
:1002E800493445343E34003442347F344034003499
:1002F800623451344934493446342234413449341F
:10030800493436341834143412347F3410342734D2
:1003180045344534453439343C344A344934493415
:1003280030340134713409340534033436344934F3
:1003380049344934363406344934493429341E346E
:10034800073418346034183407343E3441344134A7
:1003580041343E347F3440344034403440340034F7
:1003680041347F34413400347F3404340834103449
:100378007F347F3409340934093406343F34403437
:10038800403440343F34013401347F340134013483
:1003980000343034303400340034003436343634E9
:1003A8000034003400340034003400340034F601E2
:1003B800F31FDF29E029E829F209F309F20A0319F2
:1003C800F30AF601F60AE829F11FEB29EC29F229CC
:1003D800F009F109F00A0319F10AF2297008710409
:1003E8000319F729F8292D2AF501F50A072A0130FA
:1003F8000310F00DF10DFF3E031DFC290130F40040
:100408007408F507072AF11F0A2A0B2AFB290D2A67
:100418000D2A71087302031D132A70087202031C47
:10042800162A172A1E2A7008F2027108031CF30301
:10043800F3021E2A01300310F10CF00CFF3E031DDD
:100448001F2A0130F502031D2A2A2B2A0D2A2D2ADC
:100458002D2A76080319312A322A382AF209F30993
:10046800F20A0319F30A382A7308F1007208F00037
:100478003D2A080083120313881308120D30AF00B9
:100488000030B0000A128A11F0220A128A110E30C6
:1004980083120313AF000030B0000A128A11F02251
:1004A8000A128A110F3083120313AF000030B00014
:1004B8000A128A11F0220A128A11103083120313C9
:1004C800AF000030B0000A128A11F0220A128A1115
:1004D800113083120313AF000030B0000A128A11E2
:1004E800F0220A128A11133083120313AF0000306E
:1004F800B0000A128A11F0220A128A1114308312EB
:100508000313AF000030B0000A128A11F0220A1259
:100518008A11831203133508B0003408AF000A1299
:100528008A11F0220A128A1183120313081608008E
:10053800831603130F088F3960388F008F150F113A
:100548008F100F10051085100511851106168616D7
:100558000915081187110812871208138813071143
:1005680087110712871207138713831203131F08B3
:100578003F3940389F001F08C3391C389F001F149B
:10058800831603139F179F128316031708108810EA
:100598000811881188178911891283120313061606
:1005A80086168B150B1083160313161696160E3027
:1005B8008312031385000A128A11A8230A128A11CA
:1005C8000A128A1195230A128A110A128A118123A2
:1005D8000A128A118B170800831203138713B201BA
:1005E800B3013308803AFF0080307F02031DFE2AE2
:1005F80005303202031C012B022B042B392B392B1B
:10060800053083120313B1003108AB002F080A121A
:100618008A113A230A128A11013E83120313320700
:1006280084000A128A116C210A128A1193001C2B69
:1006380083160313141C212B222B1C2B232B013074
:1006480083120313B2070318B30A0030B307330841
:10065800803AFF0080307F02031D342B05303202C0
:10066800031C372B382B042B392B08008312031358
:10067800AE00AD013F2B2E1C422B432B482B2B08E1
:10068800AC002C08AD07482B0310AB0D0310AE0CC3
:100698002E08031D502B512B3F2B522B2D08542B6A
:1006A80008000A128A119C220A128A115B2B8312F3
:1006B80003134008B5003F08B4000A128A113E220D
:1006C8000A128A115B2B5B2B0A128A1110280B1C49
:1006D8006E2B6F2B762B0A128A112E200A128A1182
:1006E8000B10762B831203132A08FF0029088A00AF
:1006F800280E8300FE0E7E0E09008312031388174E
:10070800871708120712813093008A2B8316031368
:10071800141C8F2B902B8A2B831203130816071691
:1007280008008312031388178717081207124F301F
:1007380093009E2B83160313141CA32BA42B9E2B10
:100748008312031307160800F0308312031394056D
:100758001412831603131417941783120313941691
:0E07680008150715081607130800FF340334A0
:04400E00D5E3FFFFF8
:00000001FF
